{
  "contractName": "carhistory",
  "abi": [
    {
      "constant": true,
      "inputs": [
        {
          "internalType": "bytes32",
          "name": "",
          "type": "bytes32"
        }
      ],
      "name": "carHistoryStructs",
      "outputs": [
        {
          "internalType": "uint256",
          "name": "mileage",
          "type": "uint256"
        },
        {
          "internalType": "bytes32",
          "name": "part1",
          "type": "bytes32"
        },
        {
          "internalType": "bytes32",
          "name": "part2",
          "type": "bytes32"
        },
        {
          "internalType": "bytes32",
          "name": "part3",
          "type": "bytes32"
        },
        {
          "internalType": "address",
          "name": "sender",
          "type": "address"
        }
      ],
      "payable": false,
      "stateMutability": "view",
      "type": "function"
    },
    {
      "constant": true,
      "inputs": [],
      "name": "getCarRegNoArray",
      "outputs": [
        {
          "internalType": "bytes32[]",
          "name": "",
          "type": "bytes32[]"
        }
      ],
      "payable": false,
      "stateMutability": "view",
      "type": "function"
    },
    {
      "constant": false,
      "inputs": [
        {
          "internalType": "bytes32",
          "name": "carRegNo",
          "type": "bytes32"
        },
        {
          "internalType": "uint256",
          "name": "mileage",
          "type": "uint256"
        },
        {
          "internalType": "bytes32",
          "name": "part1",
          "type": "bytes32"
        },
        {
          "internalType": "bytes32",
          "name": "part2",
          "type": "bytes32"
        },
        {
          "internalType": "bytes32",
          "name": "part3",
          "type": "bytes32"
        }
      ],
      "name": "setCarHistoryLog",
      "outputs": [
        {
          "internalType": "bool",
          "name": "success",
          "type": "bool"
        }
      ],
      "payable": false,
      "stateMutability": "nonpayable",
      "type": "function"
    },
    {
      "constant": true,
      "inputs": [
        {
          "internalType": "bytes32",
          "name": "carRegNo",
          "type": "bytes32"
        }
      ],
      "name": "getCarHistoryLog",
      "outputs": [
        {
          "internalType": "uint256",
          "name": "",
          "type": "uint256"
        },
        {
          "internalType": "bytes32",
          "name": "",
          "type": "bytes32"
        },
        {
          "internalType": "bytes32",
          "name": "",
          "type": "bytes32"
        },
        {
          "internalType": "bytes32",
          "name": "",
          "type": "bytes32"
        },
        {
          "internalType": "address",
          "name": "",
          "type": "address"
        }
      ],
      "payable": false,
      "stateMutability": "view",
      "type": "function"
    }
  ],
  "bytecode": "0x608060405234801561001057600080fd5b506104b5806100206000396000f3fe608060405234801561001057600080fd5b506004361061004c5760003560e01c8063208541c11461005157806350bf4d30146100bf578063be4f824a1461011e578063e1f637f3146101a8575b600080fd5b6100a5600480360360a081101561006757600080fd5b810190808035906020019092919080359060200190929190803590602001909291908035906020019092919080359060200190929190505050610232565b604051808215151515815260200191505060405180910390f35b6100c7610329565b6040518080602001828103825283818151815260200191508051906020019060200280838360005b8381101561010a5780820151818401526020810190506100ef565b505050509050019250505060405180910390f35b61014a6004803603602081101561013457600080fd5b8101908080359060200190929190505050610381565b604051808681526020018581526020018481526020018381526020018273ffffffffffffffffffffffffffffffffffffffff1673ffffffffffffffffffffffffffffffffffffffff1681526020019550505050505060405180910390f35b6101d4600480360360208110156101be57600080fd5b810190808035906020019092919050505061042a565b604051808681526020018581526020018481526020018381526020018273ffffffffffffffffffffffffffffffffffffffff1673ffffffffffffffffffffffffffffffffffffffff1681526020019550505050505060405180910390f35b600084600080888152602001908152602001600020600001819055508360008088815260200190815260200160002060010181905550826000808881526020019081526020016000206002018190555081600080888152602001908152602001600020600301819055503360008088815260200190815260200160002060040160006101000a81548173ffffffffffffffffffffffffffffffffffffffff021916908373ffffffffffffffffffffffffffffffffffffffff16021790555060018690806001815401808255809150509060018203906000526020600020016000909192909190915055506001905095945050505050565b6060600180548060200260200160405190810160405280929190818152602001828054801561037757602002820191906000526020600020905b815481526020019060010190808311610363575b5050505050905090565b60008060008060008060008781526020019081526020016000206000015460008088815260200190815260200160002060010154600080898152602001908152602001600020600201546000808a8152602001908152602001600020600301546000808b815260200190815260200160002060040160009054906101000a900473ffffffffffffffffffffffffffffffffffffffff169450945094509450945091939590929450565b60006020528060005260406000206000915090508060000154908060010154908060020154908060030154908060040160009054906101000a900473ffffffffffffffffffffffffffffffffffffffff1690508556fea265627a7a723158204c45e2ea6a232a54fd0b8b2350e0c0ff9597ccbfda1a3cc1c7dbdd0932d5f0a164736f6c63430005100032",
  "source": "pragma solidity >=0.4.10;\n\ncontract carhistory {\n\nstruct CarHistoryStruct {\n  uint mileage;\n  bytes32 part1;\n  bytes32 part2;\n  bytes32 part3;\n  address sender;\n}\n\nmapping (bytes32 => CarHistoryStruct) public carHistoryStructs;\n\nbytes32[] carRegNos;\n\nfunction getCarRegNoArray() public view returns (bytes32[] memory) {\n  return carRegNos;\n}\n\nfunction setCarHistoryLog (bytes32 carRegNo, uint mileage, bytes32 part1, bytes32 part2, bytes32 part3) public returns (bool success) {\n  carHistoryStructs[carRegNo].mileage = mileage;\n  carHistoryStructs[carRegNo].part1 = part1;\n  carHistoryStructs[carRegNo].part2 = part2;\n  carHistoryStructs[carRegNo].part3 = part3;\n  carHistoryStructs[carRegNo].sender = msg.sender;\n  carRegNos.push(carRegNo);\n  return true;\n}\n\nfunction getCarHistoryLog(bytes32 carRegNo) public view returns (uint, bytes32, bytes32, bytes32, address) {\n  return (carHistoryStructs[carRegNo].mileage, carHistoryStructs[carRegNo].part1,\n    carHistoryStructs[carRegNo].part2, carHistoryStructs[carRegNo].part3, carHistoryStructs[carRegNo].sender);\n}\n\n}\n",
  "sourcePath": "/home/ouma/carhistory/carhistory/contracts/carhistory.sol",
  "compiler": {
    "name": "solc",
    "version": "0.5.16+commit.9c3226ce.Emscripten.clang"
  },
  "schemaVersion": "3.4.10",
  "updatedAt": "2022-11-22T18:06:40.661Z",
  "networkType": "ethereum",
  "devdoc": {
    "methods": {}
  },
  "userdoc": {
    "methods": {}
  }
}